{
  "contractName": "FTToken",
  "abi": [
    {
      "constant": true,
      "inputs": [],
      "name": "name",
      "outputs": [
        {
          "name": "",
          "type": "string"
        }
      ],
      "payable": false,
      "stateMutability": "view",
      "type": "function"
    },
    {
      "constant": false,
      "inputs": [
        {
          "name": "_spender",
          "type": "address"
        },
        {
          "name": "_value",
          "type": "uint256"
        }
      ],
      "name": "approve",
      "outputs": [
        {
          "name": "",
          "type": "bool"
        }
      ],
      "payable": false,
      "stateMutability": "nonpayable",
      "type": "function"
    },
    {
      "constant": true,
      "inputs": [],
      "name": "FT_DEPOSIT_FUND",
      "outputs": [
        {
          "name": "",
          "type": "address"
        }
      ],
      "payable": false,
      "stateMutability": "view",
      "type": "function"
    },
    {
      "constant": true,
      "inputs": [],
      "name": "totalSupply",
      "outputs": [
        {
          "name": "",
          "type": "uint256"
        }
      ],
      "payable": false,
      "stateMutability": "view",
      "type": "function"
    },
    {
      "constant": false,
      "inputs": [
        {
          "name": "_from",
          "type": "address"
        },
        {
          "name": "_to",
          "type": "address"
        },
        {
          "name": "_value",
          "type": "uint256"
        }
      ],
      "name": "transferFrom",
      "outputs": [
        {
          "name": "",
          "type": "bool"
        }
      ],
      "payable": false,
      "stateMutability": "nonpayable",
      "type": "function"
    },
    {
      "constant": true,
      "inputs": [],
      "name": "FT_FUND_AMOUNT",
      "outputs": [
        {
          "name": "",
          "type": "uint256"
        }
      ],
      "payable": false,
      "stateMutability": "view",
      "type": "function"
    },
    {
      "constant": true,
      "inputs": [
        {
          "name": "_address",
          "type": "address"
        }
      ],
      "name": "isOwner",
      "outputs": [
        {
          "name": "",
          "type": "bool"
        }
      ],
      "payable": false,
      "stateMutability": "view",
      "type": "function"
    },
    {
      "constant": true,
      "inputs": [],
      "name": "decimals",
      "outputs": [
        {
          "name": "",
          "type": "uint8"
        }
      ],
      "payable": false,
      "stateMutability": "view",
      "type": "function"
    },
    {
      "constant": false,
      "inputs": [],
      "name": "unpause",
      "outputs": [],
      "payable": false,
      "stateMutability": "nonpayable",
      "type": "function"
    },
    {
      "constant": true,
      "inputs": [],
      "name": "paused",
      "outputs": [
        {
          "name": "",
          "type": "bool"
        }
      ],
      "payable": false,
      "stateMutability": "view",
      "type": "function"
    },
    {
      "constant": true,
      "inputs": [
        {
          "name": "_addr",
          "type": "address"
        }
      ],
      "name": "balanceOf",
      "outputs": [
        {
          "name": "",
          "type": "uint256"
        }
      ],
      "payable": false,
      "stateMutability": "view",
      "type": "function"
    },
    {
      "constant": false,
      "inputs": [],
      "name": "pause",
      "outputs": [],
      "payable": false,
      "stateMutability": "nonpayable",
      "type": "function"
    },
    {
      "constant": true,
      "inputs": [],
      "name": "owner",
      "outputs": [
        {
          "name": "",
          "type": "address"
        }
      ],
      "payable": false,
      "stateMutability": "view",
      "type": "function"
    },
    {
      "constant": true,
      "inputs": [],
      "name": "symbol",
      "outputs": [
        {
          "name": "",
          "type": "string"
        }
      ],
      "payable": false,
      "stateMutability": "view",
      "type": "function"
    },
    {
      "constant": false,
      "inputs": [
        {
          "name": "_to",
          "type": "address"
        },
        {
          "name": "_value",
          "type": "uint256"
        }
      ],
      "name": "transfer",
      "outputs": [
        {
          "name": "",
          "type": "bool"
        }
      ],
      "payable": false,
      "stateMutability": "nonpayable",
      "type": "function"
    },
    {
      "constant": false,
      "inputs": [
        {
          "name": "_from",
          "type": "address"
        },
        {
          "name": "_to",
          "type": "address"
        },
        {
          "name": "_value",
          "type": "uint256"
        },
        {
          "name": "_data",
          "type": "bytes"
        }
      ],
      "name": "transferFrom",
      "outputs": [
        {
          "name": "",
          "type": "bool"
        }
      ],
      "payable": false,
      "stateMutability": "nonpayable",
      "type": "function"
    },
    {
      "constant": false,
      "inputs": [
        {
          "name": "_to",
          "type": "address"
        },
        {
          "name": "_value",
          "type": "uint256"
        },
        {
          "name": "_data",
          "type": "bytes"
        }
      ],
      "name": "transfer",
      "outputs": [
        {
          "name": "",
          "type": "bool"
        }
      ],
      "payable": false,
      "stateMutability": "nonpayable",
      "type": "function"
    },
    {
      "constant": true,
      "inputs": [
        {
          "name": "_owner",
          "type": "address"
        },
        {
          "name": "_spender",
          "type": "address"
        }
      ],
      "name": "allowance",
      "outputs": [
        {
          "name": "",
          "type": "uint256"
        }
      ],
      "payable": false,
      "stateMutability": "view",
      "type": "function"
    },
    {
      "constant": false,
      "inputs": [
        {
          "name": "_newOwner",
          "type": "address"
        }
      ],
      "name": "transferOwnership",
      "outputs": [],
      "payable": false,
      "stateMutability": "nonpayable",
      "type": "function"
    },
    {
      "inputs": [
        {
          "name": "_ftDeposit",
          "type": "address"
        },
        {
          "name": "_start",
          "type": "uint256"
        }
      ],
      "payable": false,
      "stateMutability": "nonpayable",
      "type": "constructor"
    },
    {
      "anonymous": false,
      "inputs": [
        {
          "indexed": true,
          "name": "from",
          "type": "address"
        },
        {
          "indexed": true,
          "name": "to",
          "type": "address"
        },
        {
          "indexed": false,
          "name": "value",
          "type": "uint256"
        },
        {
          "indexed": true,
          "name": "data",
          "type": "bytes"
        }
      ],
      "name": "Transfer",
      "type": "event"
    },
    {
      "anonymous": false,
      "inputs": [
        {
          "indexed": true,
          "name": "_owner",
          "type": "address"
        },
        {
          "indexed": true,
          "name": "_spender",
          "type": "address"
        },
        {
          "indexed": false,
          "name": "_value",
          "type": "uint256"
        }
      ],
      "name": "Approval",
      "type": "event"
    },
    {
      "anonymous": false,
      "inputs": [
        {
          "indexed": true,
          "name": "_from",
          "type": "address"
        },
        {
          "indexed": true,
          "name": "_to",
          "type": "address"
        },
        {
          "indexed": false,
          "name": "_value",
          "type": "uint256"
        }
      ],
      "name": "Transfer",
      "type": "event"
    }
  ],
  "bytecode": "0x60606040526000600960006101000a81548160ff02191690831515021790555034156200002b57600080fd5b6040516040806200196d833981016040528080519060200190919080519060200190919050506040805190810160405280600381526020017f46545400000000000000000000000000000000000000000000000000000000008152506040805190810160405280601081526020017f4661726d61547275737420546f6b656e000000000000000000000000000000008152506012633b9aca008360009080519060200190620000dc92919062000263565b508260019080519060200190620000f592919062000263565b5081600260006101000a81548160ff021916908360ff160217905550806003819055505050505033600660006101000a81548173ffffffffffffffffffffffffffffffffffffffff021916908373ffffffffffffffffffffffffffffffffffffffff16021790555081600760006101000a81548173ffffffffffffffffffffffffffffffffffffffff021916908373ffffffffffffffffffffffffffffffffffffffff1602179055506317d7840060035403600460003373ffffffffffffffffffffffffffffffffffffffff1673ffffffffffffffffffffffffffffffffffffffff168152602001908152602001600020819055506317d7840060046000600760009054906101000a900473ffffffffffffffffffffffffffffffffffffffff1673ffffffffffffffffffffffffffffffffffffffff1673ffffffffffffffffffffffffffffffffffffffff1681526020019081526020016000208190555080600881905550505062000312565b828054600181600116156101000203166002900490600052602060002090601f016020900481019282601f10620002a657805160ff1916838001178555620002d7565b82800160010185558215620002d7579182015b82811115620002d6578251825591602001919060010190620002b9565b5b509050620002e69190620002ea565b5090565b6200030f91905b808211156200030b576000816000905550600101620002f1565b5090565b90565b61164b80620003226000396000f300606060405260043610610107576000357c0100000000000000000000000000000000000000000000000000000000900463ffffffff16806306fdde031461010c578063095ea7b31461019a57806317613c2c146101f457806318160ddd1461024957806323b872dd146102725780632903c062146102eb5780632f54bf6e14610314578063313ce567146103655780633f4ba83a146103945780635c975abb146103a957806370a08231146103d65780638456cb59146104235780638da5cb5b1461043857806395d89b411461048d578063a9059cbb1461051b578063ab67aa5814610575578063be45fd6214610631578063dd62ed3e146106ce578063f2fde38b1461073a575b600080fd5b341561011757600080fd5b61011f610773565b6040518080602001828103825283818151815260200191508051906020019080838360005b8381101561015f578082015181840152602081019050610144565b50505050905090810190601f16801561018c5780820380516001836020036101000a031916815260200191505b509250505060405180910390f35b34156101a557600080fd5b6101da600480803573ffffffffffffffffffffffffffffffffffffffff1690602001909190803590602001909190505061081b565b604051808215151515815260200191505060405180910390f35b34156101ff57600080fd5b61020761095f565b604051808273ffffffffffffffffffffffffffffffffffffffff1673ffffffffffffffffffffffffffffffffffffffff16815260200191505060405180910390f35b341561025457600080fd5b61025c610985565b6040518082815260200191505060405180910390f35b341561027d57600080fd5b6102d1600480803573ffffffffffffffffffffffffffffffffffffffff1690602001909190803573ffffffffffffffffffffffffffffffffffffffff1690602001909190803590602001909190505061098f565b604051808215151515815260200191505060405180910390f35b34156102f657600080fd5b6102fe6109b6565b6040518082815260200191505060405180910390f35b341561031f57600080fd5b61034b600480803573ffffffffffffffffffffffffffffffffffffffff169060200190919050506109be565b604051808215151515815260200191505060405180910390f35b341561037057600080fd5b610378610a18565b604051808260ff1660ff16815260200191505060405180910390f35b341561039f57600080fd5b6103a7610a2f565b005b34156103b457600080fd5b6103bc610a60565b604051808215151515815260200191505060405180910390f35b34156103e157600080fd5b61040d600480803573ffffffffffffffffffffffffffffffffffffffff16906020019091905050610a73565b6040518082815260200191505060405180910390f35b341561042e57600080fd5b610436610abc565b005b341561044357600080fd5b61044b610aed565b604051808273ffffffffffffffffffffffffffffffffffffffff1673ffffffffffffffffffffffffffffffffffffffff16815260200191505060405180910390f35b341561049857600080fd5b6104a0610b13565b6040518080602001828103825283818151815260200191508051906020019080838360005b838110156104e05780820151818401526020810190506104c5565b50505050905090810190601f16801561050d5780820380516001836020036101000a031916815260200191505b509250505060405180910390f35b341561052657600080fd5b61055b600480803573ffffffffffffffffffffffffffffffffffffffff16906020019091908035906020019091905050610bbb565b604051808215151515815260200191505060405180910390f35b341561058057600080fd5b610617600480803573ffffffffffffffffffffffffffffffffffffffff1690602001909190803573ffffffffffffffffffffffffffffffffffffffff1690602001909190803590602001909190803590602001908201803590602001908080601f01602080910402602001604051908101604052809392919081815260200183838082843782019150505050505091905050610be0565b604051808215151515815260200191505060405180910390f35b341561063c57600080fd5b6106b4600480803573ffffffffffffffffffffffffffffffffffffffff1690602001909190803590602001909190803590602001908201803590602001908080601f016020809104026020016040519081016040528093929190818152602001838380828437820191505050505050919050506110de565b604051808215151515815260200191505060405180910390f35b34156106d957600080fd5b610724600480803573ffffffffffffffffffffffffffffffffffffffff1690602001909190803573ffffffffffffffffffffffffffffffffffffffff169060200190919050506113dc565b6040518082815260200191505060405180910390f35b341561074557600080fd5b610771600480803573ffffffffffffffffffffffffffffffffffffffff1690602001909190505061156e565b005b61077b61160b565b60018054600181600116156101000203166002900480601f0160208091040260200160405190810160405280929190818152602001828054600181600116156101000203166002900480156108115780601f106107e657610100808354040283529160200191610811565b820191906000526020600020905b8154815290600101906020018083116107f457829003601f168201915b5050505050905090565b600081600460003373ffffffffffffffffffffffffffffffffffffffff1673ffffffffffffffffffffffffffffffffffffffff168152602001908152602001600020541015156109545781600560003373ffffffffffffffffffffffffffffffffffffffff1673ffffffffffffffffffffffffffffffffffffffff16815260200190815260200160002060008573ffffffffffffffffffffffffffffffffffffffff1673ffffffffffffffffffffffffffffffffffffffff168152602001908152602001600020819055508273ffffffffffffffffffffffffffffffffffffffff163373ffffffffffffffffffffffffffffffffffffffff167f8c5be1e5ebec7d5bd14f71427d1e84f3dd0314c0f7b2291e5b200ac8c7c3b925846040518082815260200191505060405180910390a360019050610959565b600090505b92915050565b600760009054906101000a900473ffffffffffffffffffffffffffffffffffffffff1681565b6000600354905090565b60006109ad8484846020604051908101604052806000815250610be0565b90509392505050565b6317d7840081565b60008173ffffffffffffffffffffffffffffffffffffffff16600660009054906101000a900473ffffffffffffffffffffffffffffffffffffffff1673ffffffffffffffffffffffffffffffffffffffff16149050919050565b6000600260009054906101000a900460ff16905090565b610a38336109be565b1515610a4357600080fd5b6000600960006101000a81548160ff021916908315150217905550565b600960009054906101000a900460ff1681565b6000600460008373ffffffffffffffffffffffffffffffffffffffff1673ffffffffffffffffffffffffffffffffffffffff168152602001908152602001600020549050919050565b610ac5336109be565b1515610ad057600080fd5b6001600960006101000a81548160ff021916908315150217905550565b600660009054906101000a900473ffffffffffffffffffffffffffffffffffffffff1681565b610b1b61160b565b60008054600181600116156101000203166002900480601f016020809104026020016040519081016040528092919081815260200182805460018160011615610100020316600290048015610bb15780601f10610b8657610100808354040283529160200191610bb1565b820191906000526020600020905b815481529060010190602001808311610b9457829003601f168201915b5050505050905090565b6000610bd8838360206040519081016040528060008152506110de565b905092915050565b600080600960009054906101000a900460ff16151515610bff57600080fd5b6000600560008873ffffffffffffffffffffffffffffffffffffffff1673ffffffffffffffffffffffffffffffffffffffff16815260200190815260200160002060003373ffffffffffffffffffffffffffffffffffffffff1673ffffffffffffffffffffffffffffffffffffffff16815260200190815260200160002054118015610c8b5750600084115b8015610d13575083600560008873ffffffffffffffffffffffffffffffffffffffff1673ffffffffffffffffffffffffffffffffffffffff16815260200190815260200160002060003373ffffffffffffffffffffffffffffffffffffffff1673ffffffffffffffffffffffffffffffffffffffff1681526020019081526020016000205410155b8015610d5e575083600460008873ffffffffffffffffffffffffffffffffffffffff1673ffffffffffffffffffffffffffffffffffffffff1681526020019081526020016000205410155b156110d05783600560008873ffffffffffffffffffffffffffffffffffffffff1673ffffffffffffffffffffffffffffffffffffffff16815260200190815260200160002060003373ffffffffffffffffffffffffffffffffffffffff1673ffffffffffffffffffffffffffffffffffffffff16815260200190815260200160002060008282540392505081905550610e0c8573ffffffffffffffffffffffffffffffffffffffff166115c6565b15610f38578490508073ffffffffffffffffffffffffffffffffffffffff1663c0ee0b8a3386866040518463ffffffff167c0100000000000000000000000000000000000000000000000000000000028152600401808473ffffffffffffffffffffffffffffffffffffffff1673ffffffffffffffffffffffffffffffffffffffff16815260200183815260200180602001828103825283818151815260200191508051906020019080838360005b83811015610ed6578082015181840152602081019050610ebb565b50505050905090810190601f168015610f035780820380516001836020036101000a031916815260200191505b50945050505050600060405180830381600087803b1515610f2357600080fd5b6102c65a03f11515610f3457600080fd5b5050505b610f8a84600460008973ffffffffffffffffffffffffffffffffffffffff1673ffffffffffffffffffffffffffffffffffffffff168152602001908152602001600020546115d990919063ffffffff16565b600460008873ffffffffffffffffffffffffffffffffffffffff1673ffffffffffffffffffffffffffffffffffffffff1681526020019081526020016000208190555061101f84600460008873ffffffffffffffffffffffffffffffffffffffff1673ffffffffffffffffffffffffffffffffffffffff168152602001908152602001600020546115f290919063ffffffff16565b600460008773ffffffffffffffffffffffffffffffffffffffff1673ffffffffffffffffffffffffffffffffffffffff168152602001908152602001600020819055508473ffffffffffffffffffffffffffffffffffffffff168673ffffffffffffffffffffffffffffffffffffffff167fddf252ad1be2c89b69c2b068fc378daa952ba7f163c4a11628f55a4df523b3ef866040518082815260200191505060405180910390a3600191506110d5565b600091505b50949350505050565b600080600960009054906101000a900460ff161515156110fd57600080fd5b60008411801561114c5750600460003373ffffffffffffffffffffffffffffffffffffffff1673ffffffffffffffffffffffffffffffffffffffff168152602001908152602001600020548411155b156113cf576111708573ffffffffffffffffffffffffffffffffffffffff166115c6565b1561129c578490508073ffffffffffffffffffffffffffffffffffffffff1663c0ee0b8a3386866040518463ffffffff167c0100000000000000000000000000000000000000000000000000000000028152600401808473ffffffffffffffffffffffffffffffffffffffff1673ffffffffffffffffffffffffffffffffffffffff16815260200183815260200180602001828103825283818151815260200191508051906020019080838360005b8381101561123a57808201518184015260208101905061121f565b50505050905090810190601f1680156112675780820380516001836020036101000a031916815260200191505b50945050505050600060405180830381600087803b151561128757600080fd5b6102c65a03f1151561129857600080fd5b5050505b6112ee84600460003373ffffffffffffffffffffffffffffffffffffffff1673ffffffffffffffffffffffffffffffffffffffff168152602001908152602001600020546115d990919063ffffffff16565b600460003373ffffffffffffffffffffffffffffffffffffffff1673ffffffffffffffffffffffffffffffffffffffff1681526020019081526020016000208190555061138384600460008873ffffffffffffffffffffffffffffffffffffffff1673ffffffffffffffffffffffffffffffffffffffff168152602001908152602001600020546115f290919063ffffffff16565b600460008773ffffffffffffffffffffffffffffffffffffffff1673ffffffffffffffffffffffffffffffffffffffff16815260200190815260200160002081905550600191506113d4565b600091505b509392505050565b6000600460008473ffffffffffffffffffffffffffffffffffffffff1673ffffffffffffffffffffffffffffffffffffffff16815260200190815260200160002054600560008573ffffffffffffffffffffffffffffffffffffffff1673ffffffffffffffffffffffffffffffffffffffff16815260200190815260200160002060008473ffffffffffffffffffffffffffffffffffffffff1673ffffffffffffffffffffffffffffffffffffffff16815260200190815260200160002054101561152557600560008473ffffffffffffffffffffffffffffffffffffffff1673ffffffffffffffffffffffffffffffffffffffff16815260200190815260200160002060008373ffffffffffffffffffffffffffffffffffffffff1673ffffffffffffffffffffffffffffffffffffffff168152602001908152602001600020549050611568565b600460008473ffffffffffffffffffffffffffffffffffffffff1673ffffffffffffffffffffffffffffffffffffffff1681526020019081526020016000205490505b92915050565b611577336109be565b151561158257600080fd5b80600660006101000a81548173ffffffffffffffffffffffffffffffffffffffff021916908373ffffffffffffffffffffffffffffffffffffffff16021790555050565b600080823b905060008111915050919050565b60008282111515156115e757fe5b818303905092915050565b6000818301905082811015151561160557fe5b92915050565b6020604051908101604052806000815250905600a165627a7a7230582035493f5b6ca83825d5f267147025ba7c11af9d104431637421cbdaa04e2a14da0029",
  "source": "pragma solidity ^0.4.0;\r\n\r\nimport \"./Token.sol\";\r\nimport \"./ERC20.sol\";\r\nimport \"./ERC223.sol\";\r\nimport \"./ERC223ReceivingContract.sol\";\r\nimport \"./SafeMath.sol\";\r\nimport \"./Addresses.sol\";\r\nimport \"./Ownable.sol\";\r\n\r\ncontract FTToken is Token(\"FTT\", \"FarmaTrust Token\", 18, 1000000000), ERC20, ERC223, Ownable {\r\n\r\n    using SafeMath for uint;\r\n    using Addresses for address;\r\n\r\n    uint256 public constant FT_FUND_AMOUNT = 400000000;   // 400m FTT reserved for FarmaTrust use    \r\n    address public FT_DEPOSIT_FUND;\r\n    uint start;\r\n\r\n    bool public paused = false;\r\n  \r\n    function FTToken(address _ftDeposit, uint _start)\r\n        public {\r\n        FT_DEPOSIT_FUND = _ftDeposit;\r\n        _balanceOf[msg.sender] = _totalSupply - FT_FUND_AMOUNT;\r\n        _balanceOf[FT_DEPOSIT_FUND] = FT_FUND_AMOUNT;\r\n        start = _start;\r\n    }\r\n\r\n    function totalSupply()\r\n        public\r\n        view\r\n        returns (uint) {\r\n        return _totalSupply;\r\n    }\r\n\r\n    function balanceOf(address _addr)\r\n        public\r\n        view\r\n        returns (uint) {\r\n        return _balanceOf[_addr];\r\n    }\r\n\r\n    function transfer(address _to, uint _value)\r\n        public\r\n        returns (bool) {\r\n        return transfer(_to, _value, \"\");\r\n    }\r\n\r\n    function transfer(address _to, uint _value, bytes _data)\r\n        public\r\n        returns (bool) {\r\n        require(!paused);\r\n        if (_value > 0 &&\r\n            _value <= _balanceOf[msg.sender]) {\r\n\r\n            if (_to.isContract()) {\r\n              ERC223ReceivingContract _contract = ERC223ReceivingContract(_to);\r\n              _contract.tokenFallback(msg.sender, _value, _data);\r\n            }\r\n\r\n            _balanceOf[msg.sender] = _balanceOf[msg.sender].sub(_value);\r\n            _balanceOf[_to] = _balanceOf[_to].add(_value);\r\n\r\n            return true;\r\n        }\r\n        return false;\r\n    }\r\n\r\n    function transferFrom(address _from, address _to, uint _value)\r\n        public\r\n        returns (bool) {            \r\n        return transferFrom(_from, _to, _value, \"\");\r\n    }\r\n\r\n    function transferFrom(address _from, address _to, uint _value, bytes _data)\r\n        public\r\n        returns (bool) {\r\n        require(!paused);            \r\n        if (_allowances[_from][msg.sender] > 0 &&\r\n            _value > 0 &&\r\n            _allowances[_from][msg.sender] >= _value &&\r\n            _balanceOf[_from] >= _value) {\r\n\r\n              _allowances[_from][msg.sender] -= _value;\r\n\r\n              if (_to.isContract()) {\r\n                ERC223ReceivingContract _contract = ERC223ReceivingContract(_to);\r\n                _contract.tokenFallback(msg.sender, _value, _data);\r\n              }\r\n\r\n            _balanceOf[_from] = _balanceOf[_from].sub(_value);\r\n            _balanceOf[_to] = _balanceOf[_to].add(_value);\r\n\r\n            Transfer(_from, _to, _value);\r\n\r\n            return true;\r\n        }\r\n        return false;\r\n    }\r\n\r\n    function approve(address _spender, uint _value)\r\n        public\r\n        returns (bool) {\r\n        if (_balanceOf[msg.sender] >= _value) {\r\n          _allowances[msg.sender][_spender] = _value;\r\n          Approval(msg.sender, _spender, _value);\r\n          return true;\r\n        }\r\n        return false;\r\n    }\r\n\r\n    function allowance(address _owner, address _spender)\r\n        public\r\n        view\r\n        returns (uint) {\r\n        if (_allowances[_owner][_spender] < _balanceOf[_owner]) {\r\n          return _allowances[_owner][_spender];\r\n        }\r\n        return _balanceOf[_owner];\r\n    }\r\n\r\n    function unpause() public onlyOwner {\r\n        paused = false;\r\n    }\r\n\r\n    function pause() public onlyOwner {\r\n        paused = true;\r\n    }    \r\n}\r\n",
  "sourcePath": "/home/vagrant/DAPPS/ftt_2/contracts/FTToken.sol",
  "compiler": {
    "name": "solc",
    "version": "0.4.18+commit.9cf6e910.Emscripten.clang"
  },
  "schemaVersion": "1.0.1",
  "updatedAt": "2018-02-04T22:30:47.096Z"
}