{
  "contractName": "Ownable",
  "abi": [
    {
      "constant": true,
      "inputs": [
        {
          "name": "_address",
          "type": "address"
        }
      ],
      "name": "isOwner",
      "outputs": [
        {
          "name": "",
          "type": "bool"
        }
      ],
      "payable": false,
      "stateMutability": "view",
      "type": "function"
    },
    {
      "constant": true,
      "inputs": [],
      "name": "owner",
      "outputs": [
        {
          "name": "",
          "type": "address"
        }
      ],
      "payable": false,
      "stateMutability": "view",
      "type": "function"
    },
    {
      "constant": false,
      "inputs": [
        {
          "name": "_newOwner",
          "type": "address"
        }
      ],
      "name": "transferOwnership",
      "outputs": [],
      "payable": false,
      "stateMutability": "nonpayable",
      "type": "function"
    },
    {
      "inputs": [],
      "payable": false,
      "stateMutability": "nonpayable",
      "type": "constructor"
    }
  ],
  "bytecode": "0x6060604052341561000f57600080fd5b336000806101000a81548173ffffffffffffffffffffffffffffffffffffffff021916908373ffffffffffffffffffffffffffffffffffffffff16021790555061023c8061005e6000396000f300606060405260043610610057576000357c0100000000000000000000000000000000000000000000000000000000900463ffffffff1680632f54bf6e1461005c5780638da5cb5b146100ad578063f2fde38b14610102575b600080fd5b341561006757600080fd5b610093600480803573ffffffffffffffffffffffffffffffffffffffff1690602001909190505061013b565b604051808215151515815260200191505060405180910390f35b34156100b857600080fd5b6100c0610194565b604051808273ffffffffffffffffffffffffffffffffffffffff1673ffffffffffffffffffffffffffffffffffffffff16815260200191505060405180910390f35b341561010d57600080fd5b610139600480803573ffffffffffffffffffffffffffffffffffffffff169060200190919050506101b9565b005b60008173ffffffffffffffffffffffffffffffffffffffff166000809054906101000a900473ffffffffffffffffffffffffffffffffffffffff1673ffffffffffffffffffffffffffffffffffffffff16149050919050565b6000809054906101000a900473ffffffffffffffffffffffffffffffffffffffff1681565b6101c23361013b565b15156101cd57600080fd5b806000806101000a81548173ffffffffffffffffffffffffffffffffffffffff021916908373ffffffffffffffffffffffffffffffffffffffff160217905550505600a165627a7a72305820c3465c07d72b3ac83145e653c66e37feaee80039d3266f54d8a9304abc882bc80029",
  "source": "pragma solidity ^0.4.0;\r\n\r\ncontract Ownable {\r\n\r\n    address public owner;\r\n\r\n    modifier onlyOwner {\r\n        require(isOwner(msg.sender));\r\n        _;\r\n    }\r\n\r\n    function Ownable() public {\r\n        owner = msg.sender;\r\n    }\r\n\r\n    function transferOwnership(address _newOwner) public onlyOwner {\r\n        owner = _newOwner;\r\n    }\r\n\r\n    function isOwner(address _address) public constant returns (bool) {\r\n        return owner == _address;\r\n    }\r\n}\r\n",
  "sourcePath": "/home/vagrant/DAPPS/ftt_2/contracts/Ownable.sol",
  "compiler": {
    "name": "solc",
    "version": "0.4.18+commit.9cf6e910.Emscripten.clang"
  },
  "schemaVersion": "1.0.1",
  "updatedAt": "2018-02-04T22:30:45.170Z"
}