{
  "contractName": "TokenDistribution",
  "abi": [
    {
      "constant": true,
      "inputs": [],
      "name": "_cap",
      "outputs": [
        {
          "name": "",
          "type": "uint256"
        }
      ],
      "payable": false,
      "stateMutability": "view",
      "type": "function"
    },
    {
      "constant": true,
      "inputs": [
        {
          "name": "_address",
          "type": "address"
        }
      ],
      "name": "isOwner",
      "outputs": [
        {
          "name": "",
          "type": "bool"
        }
      ],
      "payable": false,
      "stateMutability": "view",
      "type": "function"
    },
    {
      "constant": false,
      "inputs": [],
      "name": "finalize",
      "outputs": [],
      "payable": false,
      "stateMutability": "nonpayable",
      "type": "function"
    },
    {
      "constant": true,
      "inputs": [],
      "name": "capReached",
      "outputs": [
        {
          "name": "",
          "type": "bool"
        }
      ],
      "payable": false,
      "stateMutability": "view",
      "type": "function"
    },
    {
      "constant": false,
      "inputs": [
        {
          "name": "beneficiary",
          "type": "address"
        }
      ],
      "name": "buyFor",
      "outputs": [],
      "payable": true,
      "stateMutability": "payable",
      "type": "function"
    },
    {
      "constant": true,
      "inputs": [],
      "name": "_beneficiary",
      "outputs": [
        {
          "name": "",
          "type": "address"
        }
      ],
      "payable": false,
      "stateMutability": "view",
      "type": "function"
    },
    {
      "constant": true,
      "inputs": [],
      "name": "collected",
      "outputs": [
        {
          "name": "",
          "type": "uint256"
        }
      ],
      "payable": false,
      "stateMutability": "view",
      "type": "function"
    },
    {
      "constant": true,
      "inputs": [],
      "name": "isFinalized",
      "outputs": [
        {
          "name": "",
          "type": "bool"
        }
      ],
      "payable": false,
      "stateMutability": "view",
      "type": "function"
    },
    {
      "constant": true,
      "inputs": [],
      "name": "owner",
      "outputs": [
        {
          "name": "",
          "type": "address"
        }
      ],
      "payable": false,
      "stateMutability": "view",
      "type": "function"
    },
    {
      "constant": true,
      "inputs": [
        {
          "name": "",
          "type": "address"
        }
      ],
      "name": "whitelist",
      "outputs": [
        {
          "name": "",
          "type": "uint256"
        }
      ],
      "payable": false,
      "stateMutability": "view",
      "type": "function"
    },
    {
      "constant": false,
      "inputs": [],
      "name": "buy",
      "outputs": [],
      "payable": true,
      "stateMutability": "payable",
      "type": "function"
    },
    {
      "constant": true,
      "inputs": [],
      "name": "availableBalance",
      "outputs": [
        {
          "name": "",
          "type": "uint256"
        }
      ],
      "payable": false,
      "stateMutability": "view",
      "type": "function"
    },
    {
      "constant": false,
      "inputs": [
        {
          "name": "",
          "type": "address"
        },
        {
          "name": "_value",
          "type": "uint256"
        },
        {
          "name": "",
          "type": "bytes"
        }
      ],
      "name": "tokenFallback",
      "outputs": [],
      "payable": false,
      "stateMutability": "nonpayable",
      "type": "function"
    },
    {
      "constant": false,
      "inputs": [
        {
          "name": "addresses",
          "type": "address[]"
        },
        {
          "name": "amounts",
          "type": "uint256[]"
        }
      ],
      "name": "updateWhitelist",
      "outputs": [],
      "payable": false,
      "stateMutability": "nonpayable",
      "type": "function"
    },
    {
      "constant": false,
      "inputs": [
        {
          "name": "_newOwner",
          "type": "address"
        }
      ],
      "name": "transferOwnership",
      "outputs": [],
      "payable": false,
      "stateMutability": "nonpayable",
      "type": "function"
    },
    {
      "inputs": [
        {
          "name": "token",
          "type": "address"
        },
        {
          "name": "start",
          "type": "uint256"
        },
        {
          "name": "end",
          "type": "uint256"
        },
        {
          "name": "price",
          "type": "uint256"
        },
        {
          "name": "limit",
          "type": "uint256"
        },
        {
          "name": "cap",
          "type": "uint256"
        },
        {
          "name": "beneficiary",
          "type": "address"
        },
        {
          "name": "unsoldTokenBeneficiary",
          "type": "address"
        }
      ],
      "payable": false,
      "stateMutability": "nonpayable",
      "type": "constructor"
    },
    {
      "payable": true,
      "stateMutability": "payable",
      "type": "fallback"
    },
    {
      "anonymous": false,
      "inputs": [
        {
          "indexed": false,
          "name": "beneficiary",
          "type": "address"
        },
        {
          "indexed": false,
          "name": "amount",
          "type": "uint256"
        },
        {
          "indexed": false,
          "name": "value",
          "type": "uint256"
        }
      ],
      "name": "Buy",
      "type": "event"
    },
    {
      "anonymous": false,
      "inputs": [
        {
          "indexed": false,
          "name": "amountRaised",
          "type": "uint256"
        }
      ],
      "name": "GoalReached",
      "type": "event"
    }
  ],
  "bytecode": "0x60606040526000600b60006101000a81548160ff0219169083151502179055506000600b60016101000a81548160ff021916908315150217905550341561004557600080fd5b6040516101008061129883398101604052808051906020019091908051906020019091908051906020019091908051906020019091908051906020019091908051906020019091908051906020019091908051906020019091905050336000806101000a81548173ffffffffffffffffffffffffffffffffffffffff021916908373ffffffffffffffffffffffffffffffffffffffff16021790555087600160006101000a81548173ffffffffffffffffffffffffffffffffffffffff021916908373ffffffffffffffffffffffffffffffffffffffff160217905550866002819055508560038190555084600481905550836005819055508260078190555081600860006101000a81548173ffffffffffffffffffffffffffffffffffffffff021916908373ffffffffffffffffffffffffffffffffffffffff16021790555080600960006101000a81548173ffffffffffffffffffffffffffffffffffffffff021916908373ffffffffffffffffffffffffffffffffffffffff16021790555050505050505050506110ba806101de6000396000f3006060604052600436106100db576000357c0100000000000000000000000000000000000000000000000000000000900463ffffffff168063060cf4e8146100e05780632f54bf6e146101095780634bb278f31461015a5780634f9359451461016f5780636f0b51801461019c578063828cedb7146101ca57806384bcefd41461021f5780638d4e4083146102485780638da5cb5b146102755780639b19251a146102ca578063a6f2ae3a14610317578063ab2f0e5114610321578063c0ee0b8a1461034a578063c94f3870146103cf578063f2fde38b14610469575b600080fd5b34156100eb57600080fd5b6100f36104a2565b6040518082815260200191505060405180910390f35b341561011457600080fd5b610140600480803573ffffffffffffffffffffffffffffffffffffffff169060200190919050506104a8565b604051808215151515815260200191505060405180910390f35b341561016557600080fd5b61016d610501565b005b341561017a57600080fd5b61018261085c565b604051808215151515815260200191505060405180910390f35b6101c8600480803573ffffffffffffffffffffffffffffffffffffffff1690602001909190505061086f565b005b34156101d557600080fd5b6101dd610dff565b604051808273ffffffffffffffffffffffffffffffffffffffff1673ffffffffffffffffffffffffffffffffffffffff16815260200191505060405180910390f35b341561022a57600080fd5b610232610e25565b6040518082815260200191505060405180910390f35b341561025357600080fd5b61025b610e2b565b604051808215151515815260200191505060405180910390f35b341561028057600080fd5b610288610e3e565b604051808273ffffffffffffffffffffffffffffffffffffffff1673ffffffffffffffffffffffffffffffffffffffff16815260200191505060405180910390f35b34156102d557600080fd5b610301600480803573ffffffffffffffffffffffffffffffffffffffff16906020019091905050610e63565b6040518082815260200191505060405180910390f35b61031f610e7b565b005b341561032c57600080fd5b610334610e86565b6040518082815260200191505060405180910390f35b341561035557600080fd5b6103cd600480803573ffffffffffffffffffffffffffffffffffffffff1690602001909190803590602001909190803590602001908201803590602001908080601f01602080910402602001604051908101604052809392919081815260200183838082843782019150505050505091905050610e90565b005b34156103da57600080fd5b61046760048080359060200190820180359060200190808060200260200160405190810160405280939291908181526020018383602002808284378201915050505050509190803590602001908201803590602001908080602002602001604051908101604052809392919081815260200183836020028082843782019150505050505091905050610f0c565b005b341561047457600080fd5b6104a0600480803573ffffffffffffffffffffffffffffffffffffffff16906020019091905050610fc4565b005b60075481565b60008173ffffffffffffffffffffffffffffffffffffffff166000809054906101000a900473ffffffffffffffffffffffffffffffffffffffff1673ffffffffffffffffffffffffffffffffffffffff16149050919050565b60035442118061051d5750600b60019054906101000a900460ff165b151561052857600080fd5b610531336104a8565b151561053c57600080fd5b600b60009054906101000a900460ff1615151561055857600080fd5b6001600b60006101000a81548160ff021916908315150217905550600860009054906101000a900473ffffffffffffffffffffffffffffffffffffffff1673ffffffffffffffffffffffffffffffffffffffff166108fc600a549081150290604051600060405180830381858888f1935050505015156105d757600080fd5b600160009054906101000a900473ffffffffffffffffffffffffffffffffffffffff1673ffffffffffffffffffffffffffffffffffffffff1663a9059cbb600860009054906101000a900473ffffffffffffffffffffffffffffffffffffffff16600160009054906101000a900473ffffffffffffffffffffffffffffffffffffffff1673ffffffffffffffffffffffffffffffffffffffff166370a08231306000604051602001526040518263ffffffff167c0100000000000000000000000000000000000000000000000000000000028152600401808273ffffffffffffffffffffffffffffffffffffffff1673ffffffffffffffffffffffffffffffffffffffff168152602001915050602060405180830381600087803b15156106fd57600080fd5b6102c65a03f1151561070e57600080fd5b505050604051805190506000604051602001526040518363ffffffff167c0100000000000000000000000000000000000000000000000000000000028152600401808373ffffffffffffffffffffffffffffffffffffffff1673ffffffffffffffffffffffffffffffffffffffff16815260200182815260200192505050602060405180830381600087803b15156107a557600080fd5b6102c65a03f115156107b657600080fd5b5050506040518051905050600160009054906101000a900473ffffffffffffffffffffffffffffffffffffffff1673ffffffffffffffffffffffffffffffffffffffff16633f4ba83a6040518163ffffffff167c0100000000000000000000000000000000000000000000000000000000028152600401600060405180830381600087803b151561084657600080fd5b6102c65a03f1151561085757600080fd5b505050565b600b60019054906101000a900460ff1681565b60008060008060065411151561088457600080fd5b6002544310158015610897575060035443105b15156108a257600080fd5b83346000811115156108b057fe5b6108c56004548261101b90919063ffffffff16565b905080600554101515156108d557fe5b61092781600d60008573ffffffffffffffffffffffffffffffffffffffff1673ffffffffffffffffffffffffffffffffffffffff1681526020019081526020016000205461105c90919063ffffffff16565b6005541015151561093457fe5b62093a806002540142111580156109515750631f4add4060065410155b1561097f576000600e60006101000a81548160ff0219169083600281111561097557fe5b0217905550610a02565b62093a8060025401421115801561099c5750631f4add4060065411155b80156109ae5750631c4fecc060065410155b156109dc576001600e60006101000a81548160ff021916908360028111156109d257fe5b0217905550610a01565b6002600e60006101000a81548160ff021916908360028111156109fb57fe5b02179055505b5b600034118015610a71575034600c60008060009054906101000a900473ffffffffffffffffffffffffffffffffffffffff1673ffffffffffffffffffffffffffffffffffffffff1673ffffffffffffffffffffffffffffffffffffffff16815260200190815260200160002054145b1515610a7c57600080fd5b34945060006002811115610a8c57fe5b600e60009054906101000a900460ff166002811115610aa757fe5b1415610acf57610ac86513c5bcfa380060045461107590919063ffffffff16565b9350610b54565b60016002811115610adc57fe5b600e60009054906101000a900460ff166002811115610af757fe5b1415610b1f57610b186509e2de7d1c0060045461107590919063ffffffff16565b9350610b53565b600280811115610b2b57fe5b600e60009054906101000a900460ff166002811115610b4657fe5b1415610b525760045493505b5b5b610b67848661101b90919063ffffffff16565b9250610b7e85600a5461105c90919063ffffffff16565b600a81905550600160009054906101000a900473ffffffffffffffffffffffffffffffffffffffff1673ffffffffffffffffffffffffffffffffffffffff1663a9059cbb87856000604051602001526040518363ffffffff167c0100000000000000000000000000000000000000000000000000000000028152600401808373ffffffffffffffffffffffffffffffffffffffff1673ffffffffffffffffffffffffffffffffffffffff16815260200182815260200192505050602060405180830381600087803b1515610c5157600080fd5b6102c65a03f11515610c6257600080fd5b5050506040518051905050610c828360065461107590919063ffffffff16565b600681905550610cda83600d60008973ffffffffffffffffffffffffffffffffffffffff1673ffffffffffffffffffffffffffffffffffffffff1681526020019081526020016000205461105c90919063ffffffff16565b600d60008873ffffffffffffffffffffffffffffffffffffffff1673ffffffffffffffffffffffffffffffffffffffff168152602001908152602001600020819055507f1cbc5ab135991bd2b6a4b034a04aa2aa086dac1371cb9b16b8b5e2ed6b036bed868487604051808473ffffffffffffffffffffffffffffffffffffffff1673ffffffffffffffffffffffffffffffffffffffff168152602001838152602001828152602001935050505060405180910390a1600754600a54141515610da257610df7565b7ffbfd8ab7c24300fa9888cd721c8565a7da56759384781283684dcf7c7c4a846b600a546040518082815260200191505060405180910390a16001600b60016101000a81548160ff0219169083151502179055505b505050505050565b600860009054906101000a900473ffffffffffffffffffffffffffffffffffffffff1681565b600a5481565b600b60009054906101000a900460ff1681565b6000809054906101000a900473ffffffffffffffffffffffffffffffffffffffff1681565b600c6020528060005260406000206000915090505481565b610e843361086f565b565b6000600654905090565b600160009054906101000a900473ffffffffffffffffffffffffffffffffffffffff1673ffffffffffffffffffffffffffffffffffffffff163373ffffffffffffffffffffffffffffffffffffffff16141515610eec57600080fd5b610f018260065461105c90919063ffffffff16565b600681905550505050565b6000610f17336104a8565b1515610f2257600080fd5b81518351141515610f3257600080fd5b600090505b8251811015610fbf578181815181101515610f4e57fe5b90602001906020020151600c60008584815181101515610f6a57fe5b9060200190602002015173ffffffffffffffffffffffffffffffffffffffff1673ffffffffffffffffffffffffffffffffffffffff168152602001908152602001600020819055508080600101915050610f37565b505050565b610fcd336104a8565b1515610fd857600080fd5b806000806101000a81548173ffffffffffffffffffffffffffffffffffffffff021916908373ffffffffffffffffffffffffffffffffffffffff16021790555050565b60008060008311151561102a57fe5b828481151561103557fe5b049050828481151561104357fe5b06818402018414151561105257fe5b8091505092915050565b6000818301905082811015151561106f57fe5b92915050565b600082821115151561108357fe5b8183039050929150505600a165627a7a72305820bb596997e7cf8fd9e9314510215e7b015f27cceb1502b9ce0c4064aaba85ec8e0029",
  "source": "pragma solidity ^0.4.0;\r\n\r\nimport \"./ERC223ReceivingContract.sol\";\r\nimport \"./SafeMath.sol\";\r\nimport \"./ERC20.sol\";\r\nimport \"./Token.sol\";\r\nimport \"./Ownable.sol\";\r\n\r\ncontract TokenDistribution is ERC223ReceivingContract, Ownable {\r\n\r\n  using SafeMath for uint;\r\n\r\n  Token private _token;\r\n\r\n  uint private _start;\r\n  uint private _end;\r\n\r\n  uint private _price;\r\n  uint private _limit;\r\n  uint private _available;\r\n  uint public _cap;\r\n\r\n  address public _beneficiary;\r\n  address _unsoldTokenBeneficiary;\r\n  \r\n  uint public collected;\r\n  bool public isFinalized = false;  \r\n  bool public capReached = false;\r\n\r\n  mapping (address => uint256) public whitelist;\r\n  mapping (address => uint) private _limits;\r\n\r\n  event Buy(address beneficiary, uint amount, uint value);\r\n  event GoalReached(uint amountRaised);\r\n\r\n  enum FundingPhase {\r\n    Phase1,\r\n    Phase2,\r\n    Phase3        \r\n  }  \r\n\r\n  FundingPhase phase; \r\n\r\n  modifier evalFundingPhase {\r\n    if(now <= (_start + 1 weeks) && \r\n       _available >= 525000000) {\r\n         phase = FundingPhase.Phase1;\r\n       } else if (now <= (_start + 1 weeks) && \r\n                  _available <= 525000000 && \r\n                  _available >= 475000000) {\r\n         phase = FundingPhase.Phase2;\r\n       } else {\r\n         phase = FundingPhase.Phase3;\r\n       }\r\n    _;\r\n  }\r\n    \r\n  modifier available() {\r\n    require(_available > 0);\r\n    require(block.number >= _start && block.number < _end);\r\n    _;\r\n  }\r\n\r\n  modifier isToken() {\r\n    require(msg.sender == address(_token));\r\n    _;\r\n  }\r\n\r\n  modifier valid(address to, uint amount) {\r\n    assert(amount > 0);\r\n    amount = amount.div(_price);\r\n    assert(_limit >= amount);\r\n    assert(_limit >= _limits[to].add(amount));\r\n    _;\r\n  }\r\n\r\n  modifier onlyWhenFinalized { \r\n    require(isFinalized); \r\n    _; \r\n  }\r\n\r\n  modifier onlyWhenEnded {\r\n    require(block.timestamp > _end || capReached);\r\n    _;\r\n  }  \r\n\r\n  function TokenDistribution(address token, uint start, uint end, uint price, uint limit, uint cap, address beneficiary, address unsoldTokenBeneficiary)\r\n      public {\r\n      _token = Token(token);\r\n      _start = start;\r\n      _end = end;\r\n      _price = price;\r\n      _limit = limit;\r\n      _cap = cap;\r\n      _beneficiary = beneficiary;\r\n      _unsoldTokenBeneficiary = unsoldTokenBeneficiary;\r\n  }\r\n\r\n  function ()\r\n      public\r\n      payable {\r\n      // Not enough gas for the transaction so prevent users from sending ether\r\n      revert();\r\n  }\r\n\r\n  function buy()\r\n      public\r\n      payable {\r\n      return buyFor(msg.sender);\r\n  }\r\n\r\n  function buyFor(address beneficiary) \r\n      public      \r\n      available \r\n      valid(beneficiary, msg.value)\r\n      evalFundingPhase\r\n      payable {\r\n      require(msg.value > 0 && whitelist[owner] == msg.value);\r\n      uint value = msg.value;\r\n      uint adjustedPrice;\r\n\r\n      if (phase == FundingPhase.Phase1) {\r\n        // Deduct 20 percent       \r\n        adjustedPrice = _price.sub(21740000000000);\r\n      } else if (phase == FundingPhase.Phase2) {\r\n        // Deduct 10 percent\r\n        adjustedPrice = _price.sub(10870000000000);\r\n      } else if (phase == FundingPhase.Phase3) {\r\n        // Standard price \r\n        adjustedPrice = _price;\r\n      }\r\n\r\n      uint amount = value.div(adjustedPrice);\r\n\r\n      collected = collected.add(value);\r\n\r\n      _token.transfer(beneficiary, amount);\r\n      _available = _available.sub(amount);\r\n      _limits[beneficiary] = _limits[beneficiary].add(amount);\r\n\r\n      Buy(beneficiary, amount, value);\r\n\r\n      if (collected != _cap) {\r\n        return;\r\n      }\r\n\r\n      GoalReached(collected);\r\n      capReached = true;            \r\n  }\r\n\r\n  function tokenFallback(address, uint _value, bytes)\r\n      isToken\r\n      public {\r\n      _available = _available.add(_value);\r\n  }\r\n\r\n  function availableBalance()\r\n    view\r\n    public\r\n    returns (uint) {\r\n    return _available;\r\n  }\r\n\r\n  function updateWhitelist(address[] addresses, uint256[] amounts) \r\n    public \r\n    onlyOwner {\r\n    require(addresses.length == amounts.length);\r\n    for (uint256 i = 0; i < addresses.length; i++) {\r\n      whitelist[addresses[i]] = amounts[i];\r\n    }\r\n  }  \r\n\r\n  function finalize() \r\n    public \r\n    onlyWhenEnded \r\n    onlyOwner {\r\n    require(!isFinalized);\r\n    isFinalized = true;\r\n    _beneficiary.transfer(collected);\r\n    _token.transfer(_beneficiary, _token.balanceOf(this));\r\n    _token.unpause();\r\n  }\r\n\r\n}\r\n",
  "sourcePath": "/home/vagrant/DAPPS/ftt_2/contracts/TokenDistribution.sol",
  "compiler": {
    "name": "solc",
    "version": "0.4.18+commit.9cf6e910.Emscripten.clang"
  },
  "schemaVersion": "1.0.1",
  "updatedAt": "2018-02-04T22:30:47.131Z"
}