{
  "contractName": "UnsoldTokenVesting",
  "abi": [
    {
      "constant": true,
      "inputs": [],
      "name": "duration",
      "outputs": [
        {
          "name": "",
          "type": "uint256"
        }
      ],
      "payable": false,
      "stateMutability": "view",
      "type": "function"
    },
    {
      "constant": true,
      "inputs": [],
      "name": "cliff",
      "outputs": [
        {
          "name": "",
          "type": "uint256"
        }
      ],
      "payable": false,
      "stateMutability": "view",
      "type": "function"
    },
    {
      "constant": true,
      "inputs": [
        {
          "name": "token",
          "type": "address"
        }
      ],
      "name": "releasableAmount",
      "outputs": [
        {
          "name": "",
          "type": "uint256"
        }
      ],
      "payable": false,
      "stateMutability": "view",
      "type": "function"
    },
    {
      "constant": false,
      "inputs": [
        {
          "name": "token",
          "type": "address"
        }
      ],
      "name": "release",
      "outputs": [],
      "payable": false,
      "stateMutability": "nonpayable",
      "type": "function"
    },
    {
      "constant": true,
      "inputs": [
        {
          "name": "_address",
          "type": "address"
        }
      ],
      "name": "isOwner",
      "outputs": [
        {
          "name": "",
          "type": "bool"
        }
      ],
      "payable": false,
      "stateMutability": "view",
      "type": "function"
    },
    {
      "constant": true,
      "inputs": [
        {
          "name": "token",
          "type": "address"
        }
      ],
      "name": "vestedAmount",
      "outputs": [
        {
          "name": "",
          "type": "uint256"
        }
      ],
      "payable": false,
      "stateMutability": "view",
      "type": "function"
    },
    {
      "constant": true,
      "inputs": [],
      "name": "beneficiary",
      "outputs": [
        {
          "name": "",
          "type": "address"
        }
      ],
      "payable": false,
      "stateMutability": "view",
      "type": "function"
    },
    {
      "constant": false,
      "inputs": [
        {
          "name": "token",
          "type": "address"
        }
      ],
      "name": "revoke",
      "outputs": [],
      "payable": false,
      "stateMutability": "nonpayable",
      "type": "function"
    },
    {
      "constant": true,
      "inputs": [],
      "name": "revocable",
      "outputs": [
        {
          "name": "",
          "type": "bool"
        }
      ],
      "payable": false,
      "stateMutability": "view",
      "type": "function"
    },
    {
      "constant": true,
      "inputs": [],
      "name": "owner",
      "outputs": [
        {
          "name": "",
          "type": "address"
        }
      ],
      "payable": false,
      "stateMutability": "view",
      "type": "function"
    },
    {
      "constant": true,
      "inputs": [
        {
          "name": "",
          "type": "address"
        }
      ],
      "name": "released",
      "outputs": [
        {
          "name": "",
          "type": "uint256"
        }
      ],
      "payable": false,
      "stateMutability": "view",
      "type": "function"
    },
    {
      "constant": true,
      "inputs": [],
      "name": "start",
      "outputs": [
        {
          "name": "",
          "type": "uint256"
        }
      ],
      "payable": false,
      "stateMutability": "view",
      "type": "function"
    },
    {
      "constant": false,
      "inputs": [
        {
          "name": "_newOwner",
          "type": "address"
        }
      ],
      "name": "transferOwnership",
      "outputs": [],
      "payable": false,
      "stateMutability": "nonpayable",
      "type": "function"
    },
    {
      "constant": true,
      "inputs": [
        {
          "name": "",
          "type": "address"
        }
      ],
      "name": "revoked",
      "outputs": [
        {
          "name": "",
          "type": "bool"
        }
      ],
      "payable": false,
      "stateMutability": "view",
      "type": "function"
    },
    {
      "inputs": [
        {
          "name": "_beneficiary",
          "type": "address"
        },
        {
          "name": "_start",
          "type": "uint256"
        },
        {
          "name": "_cliff",
          "type": "uint256"
        },
        {
          "name": "_duration",
          "type": "uint256"
        },
        {
          "name": "_revocable",
          "type": "bool"
        }
      ],
      "payable": false,
      "stateMutability": "nonpayable",
      "type": "constructor"
    },
    {
      "anonymous": false,
      "inputs": [
        {
          "indexed": false,
          "name": "amount",
          "type": "uint256"
        }
      ],
      "name": "Released",
      "type": "event"
    },
    {
      "anonymous": false,
      "inputs": [],
      "name": "Revoked",
      "type": "event"
    }
  ],
  "bytecode": "0x6060604052341561000f57600080fd5b60405160a080610f1e83398101604052808051906020019091908051906020019091908051906020019091908051906020019091908051906020019091905050336000806101000a81548173ffffffffffffffffffffffffffffffffffffffff021916908373ffffffffffffffffffffffffffffffffffffffff160217905550600073ffffffffffffffffffffffffffffffffffffffff168573ffffffffffffffffffffffffffffffffffffffff16141515156100cb57600080fd5b8183111515156100da57600080fd5b84600160006101000a81548173ffffffffffffffffffffffffffffffffffffffff021916908373ffffffffffffffffffffffffffffffffffffffff16021790555080600560006101000a81548160ff0219169083151502179055508160048190555061015c838561017364010000000002610ccf179091906401000000009004565b60028190555083600381905550505050505061018c565b6000818301905082811015151561018657fe5b92915050565b610d838061019b6000396000f3006060604052600436106100d0576000357c0100000000000000000000000000000000000000000000000000000000900463ffffffff1680630fb5a6b4146100d557806313d033c0146100fe5780631726cbc81461012757806319165587146101745780632f54bf6e146101ad578063384711cc146101fe57806338af3eed1461024b57806374a8f103146102a0578063872a7810146102d95780638da5cb5b146103065780639852595c1461035b578063be9a6555146103a8578063f2fde38b146103d1578063fa01dc061461040a575b600080fd5b34156100e057600080fd5b6100e861045b565b6040518082815260200191505060405180910390f35b341561010957600080fd5b610111610461565b6040518082815260200191505060405180910390f35b341561013257600080fd5b61015e600480803573ffffffffffffffffffffffffffffffffffffffff16906020019091905050610467565b6040518082815260200191505060405180910390f35b341561017f57600080fd5b6101ab600480803573ffffffffffffffffffffffffffffffffffffffff169060200190919050506104ca565b005b34156101b857600080fd5b6101e4600480803573ffffffffffffffffffffffffffffffffffffffff1690602001909190505061069f565b604051808215151515815260200191505060405180910390f35b341561020957600080fd5b610235600480803573ffffffffffffffffffffffffffffffffffffffff169060200190919050506106f8565b6040518082815260200191505060405180910390f35b341561025657600080fd5b61025e6108e4565b604051808273ffffffffffffffffffffffffffffffffffffffff1673ffffffffffffffffffffffffffffffffffffffff16815260200191505060405180910390f35b34156102ab57600080fd5b6102d7600480803573ffffffffffffffffffffffffffffffffffffffff1690602001909190505061090a565b005b34156102e457600080fd5b6102ec610be9565b604051808215151515815260200191505060405180910390f35b341561031157600080fd5b610319610bfc565b604051808273ffffffffffffffffffffffffffffffffffffffff1673ffffffffffffffffffffffffffffffffffffffff16815260200191505060405180910390f35b341561036657600080fd5b610392600480803573ffffffffffffffffffffffffffffffffffffffff16906020019091905050610c21565b6040518082815260200191505060405180910390f35b34156103b357600080fd5b6103bb610c39565b6040518082815260200191505060405180910390f35b34156103dc57600080fd5b610408600480803573ffffffffffffffffffffffffffffffffffffffff16906020019091905050610c3f565b005b341561041557600080fd5b610441600480803573ffffffffffffffffffffffffffffffffffffffff16906020019091905050610c96565b604051808215151515815260200191505060405180910390f35b60045481565b60025481565b60006104c3600660008473ffffffffffffffffffffffffffffffffffffffff1673ffffffffffffffffffffffffffffffffffffffff168152602001908152602001600020546104b5846106f8565b610cb690919063ffffffff16565b9050919050565b60006104d582610467565b90506000811115156104e657600080fd5b61053881600660008573ffffffffffffffffffffffffffffffffffffffff1673ffffffffffffffffffffffffffffffffffffffff16815260200190815260200160002054610ccf90919063ffffffff16565b600660008473ffffffffffffffffffffffffffffffffffffffff1673ffffffffffffffffffffffffffffffffffffffff168152602001908152602001600020819055508173ffffffffffffffffffffffffffffffffffffffff1663a9059cbb600160009054906101000a900473ffffffffffffffffffffffffffffffffffffffff16836000604051602001526040518363ffffffff167c0100000000000000000000000000000000000000000000000000000000028152600401808373ffffffffffffffffffffffffffffffffffffffff1673ffffffffffffffffffffffffffffffffffffffff16815260200182815260200192505050602060405180830381600087803b151561064857600080fd5b6102c65a03f1151561065957600080fd5b50505060405180519050507ffb81f9b30d73d830c3544b34d827c08142579ee75710b490bab0b3995468c565816040518082815260200191505060405180910390a15050565b60008173ffffffffffffffffffffffffffffffffffffffff166000809054906101000a900473ffffffffffffffffffffffffffffffffffffffff1673ffffffffffffffffffffffffffffffffffffffff16149050919050565b60008060008373ffffffffffffffffffffffffffffffffffffffff166370a08231306000604051602001526040518263ffffffff167c0100000000000000000000000000000000000000000000000000000000028152600401808273ffffffffffffffffffffffffffffffffffffffff1673ffffffffffffffffffffffffffffffffffffffff168152602001915050602060405180830381600087803b15156107a057600080fd5b6102c65a03f115156107b157600080fd5b50505060405180519050915061080f600660008673ffffffffffffffffffffffffffffffffffffffff1673ffffffffffffffffffffffffffffffffffffffff1681526020019081526020016000205483610ccf90919063ffffffff16565b905060025442101561082457600092506108dd565b61083b600454600354610ccf90919063ffffffff16565b421015806108925750600760008573ffffffffffffffffffffffffffffffffffffffff1673ffffffffffffffffffffffffffffffffffffffff16815260200190815260200160002060009054906101000a900460ff165b1561089f578092506108dd565b6108da6004546108cc6108bd60035442610cb690919063ffffffff16565b84610ce890919063ffffffff16565b610d1690919063ffffffff16565b92505b5050919050565b600160009054906101000a900473ffffffffffffffffffffffffffffffffffffffff1681565b60008060006109183361069f565b151561092357600080fd5b600560009054906101000a900460ff16151561093e57600080fd5b600760008573ffffffffffffffffffffffffffffffffffffffff1673ffffffffffffffffffffffffffffffffffffffff16815260200190815260200160002060009054906101000a900460ff1615151561099757600080fd5b8373ffffffffffffffffffffffffffffffffffffffff166370a08231306000604051602001526040518263ffffffff167c0100000000000000000000000000000000000000000000000000000000028152600401808273ffffffffffffffffffffffffffffffffffffffff1673ffffffffffffffffffffffffffffffffffffffff168152602001915050602060405180830381600087803b1515610a3a57600080fd5b6102c65a03f11515610a4b57600080fd5b505050604051805190509250610a6084610467565b9150610a758284610cb690919063ffffffff16565b90506001600760008673ffffffffffffffffffffffffffffffffffffffff1673ffffffffffffffffffffffffffffffffffffffff16815260200190815260200160002060006101000a81548160ff0219169083151502179055508373ffffffffffffffffffffffffffffffffffffffff1663a9059cbb6000809054906101000a900473ffffffffffffffffffffffffffffffffffffffff16836000604051602001526040518363ffffffff167c0100000000000000000000000000000000000000000000000000000000028152600401808373ffffffffffffffffffffffffffffffffffffffff1673ffffffffffffffffffffffffffffffffffffffff16815260200182815260200192505050602060405180830381600087803b1515610b9b57600080fd5b6102c65a03f11515610bac57600080fd5b50505060405180519050507f44825a4b2df8acb19ce4e1afba9aa850c8b65cdb7942e2078f27d0b0960efee660405160405180910390a150505050565b600560009054906101000a900460ff1681565b6000809054906101000a900473ffffffffffffffffffffffffffffffffffffffff1681565b60066020528060005260406000206000915090505481565b60035481565b610c483361069f565b1515610c5357600080fd5b806000806101000a81548173ffffffffffffffffffffffffffffffffffffffff021916908373ffffffffffffffffffffffffffffffffffffffff16021790555050565b60076020528060005260406000206000915054906101000a900460ff1681565b6000828211151515610cc457fe5b818303905092915050565b60008183019050828110151515610ce257fe5b92915050565b600081830290508260001480610d085750818382811515610d0557fe5b04145b1515610d1057fe5b92915050565b600080600083111515610d2557fe5b8284811515610d3057fe5b0490508284811515610d3e57fe5b068184020184141515610d4d57fe5b80915050929150505600a165627a7a72305820dcac307713de71c330a56c1bd035a4e9c62c5dc0ada42561e1058870ef73a3d50029",
  "source": "pragma solidity ^0.4.0;\r\n\r\nimport \"./FTToken.sol\"; \r\nimport \"./Ownable.sol\";\r\nimport \"./SafeMath.sol\";\r\n\r\n/**\r\n * @title FundFTTokenVesting  \r\n * @dev A FTToken holder contract that can release its FTToken balance gradually like a\r\n * typical vesting scheme, with a cliff and vesting period. Optionally revocable by the\r\n * owner.\r\n */\r\ncontract UnsoldTokenVesting is Ownable {\r\n  using SafeMath for uint256;\r\n\r\n  event Released(uint256 amount);\r\n  event Revoked();\r\n\r\n  // beneficiary of FTTokens after they are released\r\n  address public beneficiary;\r\n\r\n  uint256 public cliff;\r\n  uint256 public start;\r\n  uint256 public duration;\r\n\r\n  bool public revocable;\r\n\r\n  mapping (address => uint256) public released;\r\n  mapping (address => bool) public revoked;\r\n\r\n  /**\r\n   * @dev Creates a vesting contract that vests its balance of any ERC20 FTToken to the\r\n   * _beneficiary, gradually in a linear fashion until _start + _duration. By then all\r\n   * of the balance will have vested.\r\n   * @param _beneficiary address of the beneficiary to whom vested FTTokens are transferred\r\n   * @param _cliff duration in seconds of the cliff in which FTTokens will begin to vest\r\n   * @param _duration duration in seconds of the period in which the FTTokens will vest\r\n   * @param _revocable whether the vesting is revocable or not\r\n   */\r\n  function UnsoldTokenVesting(address _beneficiary, uint256 _start, uint256 _cliff, uint256 _duration, bool _revocable) public {\r\n    require(_beneficiary != address(0));\r\n    require(_cliff <= _duration);\r\n\r\n    beneficiary = _beneficiary;\r\n    revocable = _revocable;\r\n    duration = _duration;\r\n    cliff = _start.add(_cliff);\r\n    start = _start;\r\n  }\r\n\r\n  /**\r\n   * @notice Transfers vested FTTokens to beneficiary.\r\n   * @param token which is being vested\r\n   */\r\n  function release(FTToken token) public {\r\n    uint256 unreleased = releasableAmount(token);\r\n\r\n    require(unreleased > 0);\r\n\r\n    released[token] = released[token].add(unreleased);\r\n\r\n    token.transfer(beneficiary, unreleased);\r\n\r\n    Released(unreleased);\r\n  }\r\n\r\n  /**\r\n   * @notice Allows the owner to revoke the vesting. FTTokens already vested\r\n   * remain in the contract, the rest are returned to the owner.\r\n   * @param token which is being vested\r\n   */\r\n  function revoke(FTToken token) public onlyOwner {\r\n    require(revocable);\r\n    require(!revoked[token]);\r\n\r\n    uint256 balance = token.balanceOf(this);\r\n\r\n    uint256 unreleased = releasableAmount(token);\r\n    uint256 refund = balance.sub(unreleased);\r\n\r\n    revoked[token] = true;\r\n\r\n    token.transfer(owner, refund);\r\n\r\n    Revoked();\r\n  }\r\n\r\n  /**\r\n   * @dev Calculates the amount that has already vested but hasn't been released yet.\r\n   * @param token which is being vested\r\n   */\r\n  function releasableAmount(FTToken token) public view returns (uint256) {\r\n    return vestedAmount(token).sub(released[token]);\r\n  }\r\n\r\n  /**\r\n   * @dev Calculates the amount that has already vested.\r\n   * @param token which is being vested\r\n   */\r\n  function vestedAmount(FTToken token) public view returns (uint256) {\r\n    uint256 currentBalance = token.balanceOf(this);\r\n    uint256 totalBalance = currentBalance.add(released[token]);\r\n\r\n    if (now < cliff) {\r\n      return 0;\r\n    } else if (now >= start.add(duration) || revoked[token]) {\r\n      return totalBalance;\r\n    } else {\r\n      return totalBalance.mul(now.sub(start)).div(duration);\r\n    }\r\n  }\r\n}\r\n",
  "sourcePath": "/home/vagrant/DAPPS/ftt_2/contracts/UnSoldTokenVesting.sol",
  "compiler": {
    "name": "solc",
    "version": "0.4.18+commit.9cf6e910.Emscripten.clang"
  },
  "schemaVersion": "1.0.1",
  "updatedAt": "2018-02-04T22:30:47.149Z"
}